{
  "abi": [
    {
      "inputs": [
        {
          "internalType": "uint256",
          "name": "length",
          "type": "uint256"
        }
      ],
      "name": "PackedCounter_InvalidLength",
      "type": "error"
    },
    {
      "inputs": [
        {
          "internalType": "bytes",
          "name": "data",
          "type": "bytes"
        },
        {
          "internalType": "uint256",
          "name": "start",
          "type": "uint256"
        },
        {
          "internalType": "uint256",
          "name": "end",
          "type": "uint256"
        }
      ],
      "name": "Slice_OutOfBounds",
      "type": "error"
    },
    {
      "inputs": [
        {
          "internalType": "uint256",
          "name": "length",
          "type": "uint256"
        },
        {
          "internalType": "uint256",
          "name": "accessedIndex",
          "type": "uint256"
        }
      ],
      "name": "Store_IndexOutOfBounds",
      "type": "error"
    },
    {
      "inputs": [
        {
          "internalType": "bytes2",
          "name": "expected",
          "type": "bytes2"
        },
        {
          "internalType": "ResourceId",
          "name": "resourceId",
          "type": "bytes32"
        },
        {
          "internalType": "string",
          "name": "resourceIdString",
          "type": "string"
        }
      ],
      "name": "Store_InvalidResourceType",
      "type": "error"
    },
    {
      "inputs": [
        {
          "internalType": "uint40",
          "name": "startWithinField",
          "type": "uint40"
        },
        {
          "internalType": "uint40",
          "name": "deleteCount",
          "type": "uint40"
        },
        {
          "internalType": "uint40",
          "name": "fieldLength",
          "type": "uint40"
        }
      ],
      "name": "Store_InvalidSplice",
      "type": "error"
    },
    {
      "anonymous": false,
      "inputs": [
        {
          "indexed": true,
          "internalType": "ResourceId",
          "name": "tableId",
          "type": "bytes32"
        },
        {
          "indexed": false,
          "internalType": "bytes32[]",
          "name": "keyTuple",
          "type": "bytes32[]"
        },
        {
          "indexed": false,
          "internalType": "bytes",
          "name": "staticData",
          "type": "bytes"
        },
        {
          "indexed": false,
          "internalType": "PackedCounter",
          "name": "encodedLengths",
          "type": "bytes32"
        },
        {
          "indexed": false,
          "internalType": "bytes",
          "name": "dynamicData",
          "type": "bytes"
        }
      ],
      "name": "Store_SetRecord",
      "type": "event"
    },
    {
      "anonymous": false,
      "inputs": [
        {
          "indexed": true,
          "internalType": "ResourceId",
          "name": "tableId",
          "type": "bytes32"
        },
        {
          "indexed": false,
          "internalType": "bytes32[]",
          "name": "keyTuple",
          "type": "bytes32[]"
        },
        {
          "indexed": false,
          "internalType": "uint48",
          "name": "start",
          "type": "uint48"
        },
        {
          "indexed": false,
          "internalType": "uint40",
          "name": "deleteCount",
          "type": "uint40"
        },
        {
          "indexed": false,
          "internalType": "PackedCounter",
          "name": "encodedLengths",
          "type": "bytes32"
        },
        {
          "indexed": false,
          "internalType": "bytes",
          "name": "data",
          "type": "bytes"
        }
      ],
      "name": "Store_SpliceDynamicData",
      "type": "event"
    },
    {
      "anonymous": false,
      "inputs": [
        {
          "indexed": true,
          "internalType": "ResourceId",
          "name": "tableId",
          "type": "bytes32"
        },
        {
          "indexed": false,
          "internalType": "bytes32[]",
          "name": "keyTuple",
          "type": "bytes32[]"
        },
        {
          "indexed": false,
          "internalType": "uint48",
          "name": "start",
          "type": "uint48"
        },
        {
          "indexed": false,
          "internalType": "bytes",
          "name": "data",
          "type": "bytes"
        }
      ],
      "name": "Store_SpliceStaticData",
      "type": "event"
    },
    {
      "inputs": [],
      "name": "_msgSender",
      "outputs": [
        {
          "internalType": "address",
          "name": "sender",
          "type": "address"
        }
      ],
      "stateMutability": "view",
      "type": "function"
    },
    {
      "inputs": [],
      "name": "_msgValue",
      "outputs": [
        {
          "internalType": "uint256",
          "name": "value",
          "type": "uint256"
        }
      ],
      "stateMutability": "pure",
      "type": "function"
    },
    {
      "inputs": [],
      "name": "_world",
      "outputs": [
        {
          "internalType": "address",
          "name": "",
          "type": "address"
        }
      ],
      "stateMutability": "view",
      "type": "function"
    },
    {
      "inputs": [],
      "name": "getMatrix",
      "outputs": [
        {
          "internalType": "uint256",
          "name": "",
          "type": "uint256"
        }
      ],
      "stateMutability": "view",
      "type": "function"
    },
    {
      "inputs": [],
      "name": "initMatrix",
      "outputs": [],
      "stateMutability": "nonpayable",
      "type": "function"
    },
    {
      "inputs": [
        {
          "internalType": "string",
          "name": "dir",
          "type": "string"
        }
      ],
      "name": "move",
      "outputs": [],
      "stateMutability": "nonpayable",
      "type": "function"
    },
    {
      "inputs": [
        {
          "internalType": "bytes4",
          "name": "interfaceId",
          "type": "bytes4"
        }
      ],
      "name": "supportsInterface",
      "outputs": [
        {
          "internalType": "bool",
          "name": "",
          "type": "bool"
        }
      ],
      "stateMutability": "pure",
      "type": "function"
    }
  ],
  "bytecode": {
    "object": "0x608060405234801561001057600080fd5b50613f80806100206000396000f3fe608060405234801561001057600080fd5b506004361061007d5760003560e01c806345ec93541161005b57806345ec9354146100df5780635841370c146100f45780635ad3a0a8146100fc578063e1af802c1461010457600080fd5b806301ffc9a7146100825780630bfb0697146100aa578063119df25f146100bf575b600080fd5b61009561009036600461371f565b61010c565b60405190151581526020015b60405180910390f35b6100bd6100b83660046137d0565b6101a5565b005b6100c7610419565b6040516001600160a01b0390911681526020016100a1565b36601f1901355b6040519081526020016100a1565b6100bd610428565b6100e66104cf565b6100c76104f1565b60007fffffffff0000000000000000000000000000000000000000000000000000000082167fb421288000000000000000000000000000000000000000000000000000000000148061019f57507fffffffff0000000000000000000000000000000000000000000000000000000082167f01ffc9a700000000000000000000000000000000000000000000000000000000145b92915050565b60006101be6101b2610419565b6001600160a01b031690565b90506101c9816104fb565b610234576040517f08c379a000000000000000000000000000000000000000000000000000000000815260206004820152600e60248201527f67616d65206e6f7420737461727400000000000000000000000000000000000060448201526064015b60405180910390fd5b60006102416101b2610419565b9050600061024e826105dd565b90506000806060604051602001610288907f4172726f775269676874000000000000000000000000000000000000000000008152600a0190565b60405160208183030381529060405280519060200120876040516020016102af9190613874565b60405160208183030381529060405280519060200120036102e2576102d6600080866106a3565b919450925090506103ea565b6040517f4172726f774c6566740000000000000000000000000000000000000000000000602082015260290160405160208183030381529060405280519060200120876040516020016103359190613874565b604051602081830303815290604052805190602001200361035c576102d660008086610a2f565b6040517f4172726f77557000000000000000000000000000000000000000000000000000602082015260270160405160208183030381529060405280519060200120876040516020016103af9190613874565b60405160208183030381529060405280519060200120036103d6576102d660008086610d91565b6103e260008086611195565b919450925090505b82156104105781156103ff576103ff82611574565b610408816115c8565b6104106117cc565b50505050505050565b60006104236119ad565b905090565b60006104356101b2610419565b60408051601080825261022082019092529192506000919060208201610200803683370190505090506104698260006119df565b60005b60108110156104ad57600082828151811061048957610489613890565b60ff90921660209283029190910190910152806104a5816138bc565b91505061046c565b506104b9826001611ab2565b6104c2816115c8565b6104cb816115c8565b5050565b6000806104dd6101b2610419565b905060006104ea82611b9d565b9392505050565b6000610423611c53565b60408051600180825281830190925260009182919060208083019080368337019050509050828160008151811061053457610534613890565b60209081029190910181019190915260408051613a3160f11b928101929092526000602283018190527f47616d65537461746500000000000000000000000000000000000000000000006030840152916105c991016040516020818303038152906040526105a1906138d6565b8360007e01010001000000000000000000000000000000000000000000000000000000611c92565b90506105d58160f81c90565b949350505050565b6040805160018082528183019092526060916000919060208083019080368337019050509050828160008151811061061757610617613890565b60209081029190910181019190915260408051613a3160f11b928101929092526000602283018190527f4d6174726978000000000000000000000000000000000000000000000000000060308401529161068c9101604051602081830303815290604052610684906138d6565b836000611d4f565b90506105d561069e8260008451611e16565b611ea6565b600080606060005b60048160ff161015610a1b5760006106c48260046138fd565b6106cf906002613920565b905060005b60038160ff161015610881576000816106ee8560046138fd565b6106f9906003613920565b6107039190613939565b9050878160ff168151811061071a5761071a613890565b602002602001015160ff16600003610732575061086f565b60028260ff1610801561076d57508761074b8385613939565b60ff168151811061075e5761075e613890565b602002602001015160ff166000145b15610784578161077c81613952565b925050610732565b878160ff168151811061079957610799613890565b602002602001015160ff168883856107b19190613939565b60ff16815181106107c4576107c4613890565b602002602001015160ff160361086d57886107de57600198505b6002888260ff16815181106107f5576107f5613890565b6020026020010181815161080991906138fd565b60ff1690525060008861081c8486613939565b60ff168151811061082f5761082f613890565b60ff928316602091820292909201015288518991831690811061085457610854613890565b602002602001015160ff168a61086a9190613971565b99505b505b8061087981613952565b9150506106d4565b5060005b60038160ff161015610a065760008161089f8560046138fd565b6108aa906003613920565b6108b49190613939565b90506000829050888260ff16815181106108d0576108d0613890565b602002602001015160ff166000036109f1575b60028160ff1610801561091e5750886108fc8286613939565b60ff168151811061090f5761090f613890565b602002602001015160ff166000145b15610935578061092d81613952565b9150506108e3565b886109408286613939565b60ff168151811061095357610953613890565b602002602001015160ff166000146109f1578961096f57600199505b8861097a8286613939565b60ff168151811061098d5761098d613890565b6020026020010151898360ff16815181106109aa576109aa613890565b60ff909216602092830291909101909101526000896109c98387613939565b60ff16815181106109dc576109dc613890565b602002602001019060ff16908160ff16815250505b505080806109fe90613952565b915050610885565b50508080610a1390613952565b9150506106ab565b508486859250925092505b93509350939050565b600080606060005b60048160ff161015610a1b576000610a508260046138fd565b610a5b906001613920565b905060005b60038160ff161015610c0257600081610a7a8560046138fd565b610a849190613920565b9050878160ff1681518110610a9b57610a9b613890565b602002602001015160ff16600003610ab35750610bf0565b60028260ff16108015610aee575087610acc8385613920565b60ff1681518110610adf57610adf613890565b602002602001015160ff166000145b15610b055781610afd81613952565b925050610ab3565b878160ff1681518110610b1a57610b1a613890565b602002602001015160ff16888385610b329190613920565b60ff1681518110610b4557610b45613890565b602002602001015160ff1603610bee5788610b5f57600198505b6002888260ff1681518110610b7657610b76613890565b60200260200101818151610b8a91906138fd565b60ff16905250600088610b9d8486613920565b60ff1681518110610bb057610bb0613890565b60ff9283166020918202929092010152885189918316908110610bd557610bd5613890565b602002602001015160ff168a610beb9190613971565b99505b505b80610bfa81613952565b915050610a60565b5060005b60038160ff161015610d7c57600081610c208560046138fd565b610c2a9190613920565b90506000829050888260ff1681518110610c4657610c46613890565b602002602001015160ff16600003610d67575b60028160ff16108015610c94575088610c728286613920565b60ff1681518110610c8557610c85613890565b602002602001015160ff166000145b15610cab5780610ca381613952565b915050610c59565b88610cb68286613920565b60ff1681518110610cc957610cc9613890565b602002602001015160ff16600014610d675789610ce557600199505b88610cf08286613920565b60ff1681518110610d0357610d03613890565b6020026020010151898360ff1681518110610d2057610d20613890565b60ff90921660209283029190910190910152600089610d3f8387613920565b60ff1681518110610d5257610d52613890565b602002602001019060ff16908160ff16815250505b50508080610d7490613952565b915050610c06565b50508080610d8990613952565b915050610a37565b600080606060005b60048160ff161015610a1b5760005b60038160ff161015610fac57600082610dc28360046138fd565b610dcc9190613920565b9050868160ff1681518110610de357610de3613890565b602002602001015160ff16600003610dfb5750610f9a565b60028260ff16108015610e4d57508683610e16846001613920565b610e219060046138fd565b610e2b9190613920565b60ff1681518110610e3e57610e3e613890565b602002602001015160ff166000145b15610e645781610e5c81613952565b925050610dfb565b8683610e71846001613920565b610e7c9060046138fd565b610e869190613920565b60ff1681518110610e9957610e99613890565b602002602001015160ff16878260ff1681518110610eb957610eb9613890565b602002602001015160ff1603610f985787610ed357600197505b868160ff1681518110610ee857610ee8613890565b60200260200101516002610efc91906138fd565b878260ff1681518110610f1157610f11613890565b60ff9092166020928302919091019091015260008784610f32856001613920565b610f3d9060046138fd565b610f479190613920565b60ff1681518110610f5a57610f5a613890565b60ff9283166020918202929092010152875188918316908110610f7f57610f7f613890565b602002602001015160ff1689610f959190613971565b98505b505b80610fa481613952565b915050610da8565b5060005b60038160ff16101561118257600082610fca8360046138fd565b610fd49190613920565b90506000829050878260ff1681518110610ff057610ff0613890565b602002602001015160ff1660000361116d575b60028160ff161080156110555750878461101e836001613920565b6110299060046138fd565b6110339190613920565b60ff168151811061104657611046613890565b602002602001015160ff166000145b1561106c578061106481613952565b915050611003565b8784611079836001613920565b6110849060046138fd565b61108e9190613920565b60ff16815181106110a1576110a1613890565b602002602001015160ff1660001461116d57886110bd57600198505b87846110ca836001613920565b6110d59060046138fd565b6110df9190613920565b60ff16815181106110f2576110f2613890565b6020026020010151888360ff168151811061110f5761110f613890565b60ff9092166020928302919091019091015260008885611130846001613920565b61113b9060046138fd565b6111459190613920565b60ff168151811061115857611158613890565b602002602001019060ff16908160ff16815250505b5050808061117a90613952565b915050610fb0565b508061118d81613952565b915050610d99565b600080606060005b60048160ff161015610a1b5760035b60ff81161561138e576000826111c38360046138fd565b6111cd9190613920565b9050868160ff16815181106111e4576111e4613890565b602002602001015160ff166000036111fc575061137c565b60018260ff1611801561124e57508683611217600185613939565b6112229060046138fd565b61122c9190613920565b60ff168151811061123f5761123f613890565b602002602001015160ff166000145b15611265578161125d81613984565b9250506111fc565b8683611272600185613939565b61127d9060046138fd565b6112879190613920565b60ff168151811061129a5761129a613890565b602002602001015160ff16878260ff16815181106112ba576112ba613890565b602002602001015160ff160361137a57876112d457600197505b6002878260ff16815181106112eb576112eb613890565b602002602001018181516112ff91906138fd565b60ff1690525060008784611314600186613939565b61131f9060046138fd565b6113299190613920565b60ff168151811061133c5761133c613890565b60ff928316602091820292909201015287518891831690811061136157611361613890565b602002602001015160ff16896113779190613971565b98505b505b8061138681613984565b9150506111ac565b5060035b60ff811615611561576000826113a98360046138fd565b6113b39190613920565b90506000829050878260ff16815181106113cf576113cf613890565b602002602001015160ff1660000361154c575b60018160ff16118015611434575087846113fd600184613939565b6114089060046138fd565b6114129190613920565b60ff168151811061142557611425613890565b602002602001015160ff166000145b1561144b578061144381613984565b9150506113e2565b8784611458600184613939565b6114639060046138fd565b61146d9190613920565b60ff168151811061148057611480613890565b602002602001015160ff1660001461154c578861149c57600198505b87846114a9600184613939565b6114b49060046138fd565b6114be9190613920565b60ff16815181106114d1576114d1613890565b6020026020010151888360ff16815181106114ee576114ee613890565b60ff909216602092830291909101909101526000888561150f600185613939565b61151a9060046138fd565b6115249190613920565b60ff168151811061153757611537613890565b602002602001019060ff16908160ff16815250505b5050808061155990613984565b915050611392565b508061156c81613952565b91505061119d565b60006115816101b2610419565b905060008061158f83611eb7565b909250905061159e8483613971565b9150808211156115b8576115b3838384611f8b565b6115c2565b6115c283836119df565b50505050565b60006115d56101b2610419565b90506000805b83518160ff16101561162e57838160ff16815181106115fc576115fc613890565b602002602001015160ff1660000361161c578161161881613952565b9250505b8061162681613952565b9150506115db565b5060008160ff1667ffffffffffffffff81111561164d5761164d613761565b604051908082528060200260200182016040528015611676578160200160208202803683370190505b5090506000805b85518160ff1610156116f457858160ff168151811061169e5761169e613890565b602002602001015160ff166000036116e2578060ff16838360ff16815181106116c9576116c9613890565b6020908102919091010152816116de81613952565b9250505b806116ec81613952565b91505061167d565b5060ff8316156117bb57600061170c8460ff1661203b565b90506117196003856139b7565b60ff1681118061172c57508360ff166010145b156117775760028684838151811061174657611746613890565b60200260200101518151811061175e5761175e613890565b602002602001019060ff16908160ff16815250506117b9565b60048684838151811061178c5761178c613890565b6020026020010151815181106117a4576117a4613890565b602002602001019060ff16908160ff16815250505b505b6117c5848661207e565b5050505050565b60006117d96101b2610419565b905060006117e6826105dd565b905060005b60048160ff1610156119a15760006118048260046138fd565b61180f906001613920565b905060005b60038160ff16101561198c5760008161182e8560046138fd565b6118389190613920565b9050600084611848846001613920565b6118539060046138fd565b61185d9190613920565b905060008561186d8560046138fd565b6118779190613920565b9050868360ff168151811061188e5761188e613890565b602002602001015160ff16600014806118c65750868160ff16815181106118b7576118b7613890565b602002602001015160ff166000145b156118d5575050505050505050565b866118e08587613920565b60ff16815181106118f3576118f3613890565b602002602001015160ff16878460ff168151811061191357611913613890565b602002602001015160ff1614806119675750868260ff168151811061193a5761193a613890565b602002602001015160ff16878260ff168151811061195a5761195a613890565b602002602001015160ff16145b15611976575050505050505050565b505050808061198490613952565b915050611814565b5050808061199990613952565b9150506117eb565b506104cb826000611ab2565b7fffffffffffffffffffffffffffffffffffffffffffffffffffffffffffffffcc36013560601c806119dc5750335b90565b604080516001808252818301909252600091602080830190803683370190505090508281600081518110611a1557611a15613890565b60209081029190910181019190915260408051613a3160f11b81840152600060228201526453636f726560d81b60308201528151808203909301835281019052611aad90611a62906138d6565b82600085604051602001611a7891815260200190565b60408051601f198184030181529190527e4002002020000000000000000000000000000000000000000000000000000061212a565b505050565b604080516001808252818301909252600091602080830190803683370190505090508281600081518110611ae857611ae8613890565b60209081029190910181019190915260408051613a3160f11b81840152600060228201527f47616d655374617465000000000000000000000000000000000000000000000060308201528151808203909301835281019052611aad90611b4d906138d6565b82600085604051602001611b6891151560f81b815260010190565b60408051601f198184030181529190527e0101000100000000000000000000000000000000000000000000000000000061212a565b604080516001808252818301909252600091829190602080830190803683370190505090508281600081518110611bd657611bd6613890565b60209081029190910181019190915260408051613a3160f11b928101929092526000602283018190526453636f726560d81b6030840152916105d59101604051602081830303815290604052611c2b906138d6565b8360007e40020020200000000000000000000000000000000000000000000000000000611c92565b7f629a4c26e296b22a8e0856e9f6ecb2d1008d7e00081111962cd175fa7488e175546000906001600160a01b031680611c8d573391505090565b919050565b600080611c9d611c53565b9050306001600160a01b03821603611cc357611cbb868686866121e0565b9150506105d5565b6040517f8c364d590000000000000000000000000000000000000000000000000000000081526001600160a01b03821690638c364d5990611d0e908990899089908990600401613a14565b602060405180830381865afa158015611d2b573d6000803e3d6000fd5b505050506040513d601f19601f82011682018060405250810190611cbb9190613a43565b60606000611d5b611c53565b9050306001600160a01b03821603611d8057611d78858585612216565b9150506104ea565b6040517f1e7889770000000000000000000000000000000000000000000000000000000081526001600160a01b03821690631e78897790611dc990889088908890600401613a5c565b600060405180830381865afa158015611de6573d6000803e3d6000fd5b505050506040513d6000823e601f3d908101601f19168201604052611d789190810190613acd565b509392505050565b6000818311158015611e29575083518211155b611e65578383836040517f23230fa300000000000000000000000000000000000000000000000000000000815260040161022b93929190613b2e565b60208401611e738482613971565b90506000611e818585613b53565b6fffffffffffffffffffffffffffffffff1660809290921b9190911795945050505050565b606060006104ea83600160f8612250565b60408051600180825281830190925260009182918291602080830190803683370190505090508381600081518110611ef157611ef1613890565b60209081029190910181019190915260408051613a3160f11b928101929092526000602283018190526453636f726560d81b60308401529182918291611f709101604051602081830303815290604052611f4a906138d6565b857e400200202000000000000000000000000000000000000000000000000000006122cb565b50506020810151604090910151909890975095505050505050565b6040805160208082018590528183018490528251808303840181526001606080850182815260a0860190965291946000949293859391929160800190803683370190505090508681600081518110611fe557611fe5613890565b60209081029190910181019190915260408051613a3160f11b81840152600060228201526453636f726560d81b6030820152815180820390930183528101905261041090612032906138d6565b82868686612392565b60008082484360405160200161205b929190918252602082015260400190565b6040516020818303038152906040528051906020012060001c6104ea9190613b66565b6040805160018082528183019092526000916020808301908036833701905050905082816000815181106120b4576120b4613890565b60209081029190910181019190915260408051613a3160f11b81840152600060228201527f4d6174726978000000000000000000000000000000000000000000000000000060308201528151808203909301835281019052611aad90612119906138d6565b82600061212586612408565b612418565b6000612134611c53565b9050306001600160a01b038216036121585761215386868686866124c9565b6121d8565b6040517f390baae00000000000000000000000000000000000000000000000000000000081526001600160a01b0382169063390baae0906121a59089908990899089908990600401613b7a565b600060405180830381600087803b1580156121bf57600080fd5b505af11580156121d3573d6000803e3d6000fd5b505050505b505050505050565b600061220d6121ef86866124de565b60ff858116601b0360080285901c166122088587612534565b61256f565b95945050505050565b60606105d56122268585856125c0565b612249846122348888612640565b9060ff166028026038011c64ffffffffff1690565b6000612653565b6060600061225e8560801c90565b90506fffffffffffffffffffffffffffffffff85166000858281612284576122846139a1565b04905060405193506020840160208202810160405281855260005b828110156122bf578451871c82529387019360209091019060010161229f565b50505050509392505050565b60606000606060006122db611c53565b9050306001600160a01b03821603612304576122f8878787612676565b93509350935050610a26565b6040517f419b58fd0000000000000000000000000000000000000000000000000000000081526001600160a01b0382169063419b58fd9061234d908a908a908a90600401613bc1565b600060405180830381865afa15801561236a573d6000803e3d6000fd5b505050506040513d6000823e601f3d908101601f191682016040526122f89190810190613bea565b600061239c611c53565b9050306001600160a01b038216036123bb57612153868686868661277e565b6040517f298314fb0000000000000000000000000000000000000000000000000000000081526001600160a01b0382169063298314fb906121a59089908990899089908990600401613c57565b6060816104ea81600160f8612794565b6000612422611c53565b9050306001600160a01b0382160361244557612440858585856127e8565b6117c5565b6040517fef6ea8620000000000000000000000000000000000000000000000000000000081526001600160a01b0382169063ef6ea86290612490908890889088908890600401613ca8565b600060405180830381600087803b1580156124aa57600080fd5b505af11580156124be573d6000803e3d6000fd5b505050505050505050565b6117c585856124d88487612534565b85612823565b600082826040516020016124f3929190613ce7565b60408051601f1981840301815291905280516020909101207f86425bff6b57326c7859e89024fe4f238ca327a1ae4a230180dd2f0e88aaa7d9189392505050565b600080805b8360ff16811015611e0e5761255b60ff601b83900360080287901c1683613971565b915080612567816138bc565b915050612539565b60006020821061259557602082048401935060208281612591576125916139a1565b0691505b508254600882021b602082900380841115611e0e576001850154600882021c82179150509392505050565b600083836040516020016125d5929190613ce7565b604051602081830303815290604052805190602001208260f81b7effffffffffffffffffffffffffffffffffffffffffffffffffffffffffffff19167f3b4102da22e32d82fc925482184f16c09fd4281692720b87d124aef6da48a0f1181860001c90509392505050565b60006104ea61264f8484612a7c565b5490565b60405160208101601f19603f8584010116604052838252611e0e85858584612ad2565b606060006060600061268785612b8a565b9050612694878783612bad565b935060006126a186612be6565b90508015612773576126b38888612640565b935066ffffffffffffff841667ffffffffffffffff8111156126d7576126d7613761565b6040519080825280601f01601f191660200182016040528015612701576020820181803683370190505b5092506020830160005b828160ff1610156127705760006127238b8b846125c0565b90506000612740888460ff166028026038011c64ffffffffff1690565b905061274f8282600087612ad2565b6127598185613971565b93505050808061276890613952565b91505061270b565b50505b505093509350939050565b6117c5858585858561278f8b612c23565b612d51565b825160609060006127a58583613d22565b9050604051925060208301601f19603f83860101166040528184526000602088015b848210156122bf578051871b835291870191600191909101906020016127c7565b60006127f48585612640565b90506000612811828560ff166028026038011c64ffffffffff1690565b90506121d88686866000858888613040565b600061282f85856124de565b9050847f8c0b5119d4cec7b284c6b1b39252a03d1e2f2d7451a5895562524c113bb952be85858560405161286593929190613d39565b60405180910390a2613a3160f11b857fffff00000000000000000000000000000000000000000000000000000000000016146128a157506115c2565b60006128ac86613456565b905060005b815181101561298b5760008282815181106128ce576128ce613890565b602002602001015190506128fa6004826affffffffffffffffffffff191661353690919063ffffffff16565b15612978576040517f964f667d000000000000000000000000000000000000000000000000000000008152606082901c9063964f667d90612945908b908b908b908b90600401613d76565b600060405180830381600087803b15801561295f57600080fd5b505af1158015612973573d6000803e3d6000fd5b505050505b5080612983816138bc565b9150506128b1565b5061299f828565ffffffffffff1685613554565b60005b81518110156104105760008282815181106129bf576129bf613890565b602002602001015190506129eb6008826affffffffffffffffffffff191661353690919063ffffffff16565b15612a69576040517fa8ba8721000000000000000000000000000000000000000000000000000000008152606082901c9063a8ba872190612a36908b908b908b908b90600401613d76565b600060405180830381600087803b158015612a5057600080fd5b505af1158015612a64573d6000803e3d6000fd5b505050505b5080612a74816138bc565b9150506129a2565b60008282604051602001612a91929190613ce7565b60408051601f1981840301815291905280516020909101207f14e2fcc58e58e68ec7edc30c8d50dccc3ce2714a623ec81f46b6a63922d76569189392505050565b8115612b445760208210612afc57602082048401935060208281612af857612af86139a1565b0691505b8115612b445760208290036000600019600883021c1990508554600885021b811984511682821617845250818511612b355750506115c2565b50600194909401939283900392015b5b60208310612b665783548152600190930192601f1990920191602001612b45565b82156115c2576000600019600885021c198251865482169119161782525050505050565b60006008612b9a60026020613b53565b612ba49190613d22565b9190911c919050565b606081600003612bcc57506040805160208101909152600081526104ea565b6000612bd885856124de565b905061220d81846000612653565b60006008600180612bf960026020613b53565b612c039190613b53565b612c0d9190613b53565b612c179190613d22565b8260ff911c1692915050565b60408051613a3160f11b60208201527f73746f726500000000000000000000000000000000000000000000000000000060228201527f5461626c65730000000000000000000000000000000000000000000000000000603082015260009101604051602081830303815290604052612c9a906138d6565b8203612cc657507e60030220202000000000000000000000000000000000000000000000000000919050565b60408051613a3160f11b60208201527f73746f726500000000000000000000000000000000000000000000000000000060228201527f5461626c65730000000000000000000000000000000000000000000000000000603082015261019f91612d489101604051602081830303815290604052612d42906138d6565b84613564565b6020600061256f565b857f8dbb3a9672eebfd3773e72dd9c102393436816d832c7ba9e1e1ac8fcadcac7a986868686604051612d879493929190613daf565b60405180910390a2613a3160f11b867fffff00000000000000000000000000000000000000000000000000000000000016036121d8576000612dc887613456565b905060005b8151811015612eab576000828281518110612dea57612dea613890565b60200260200101519050612e166001826affffffffffffffffffffff191661353690919063ffffffff16565b15612e98576040517f57066c9c000000000000000000000000000000000000000000000000000000008152606082901c906357066c9c90612e65908c908c908c908c908c908c90600401613dee565b600060405180830381600087803b158015612e7f57600080fd5b505af1158015612e93573d6000803e3d6000fd5b505050505b5080612ea3816138bc565b915050612dcd565b506000612eb888886124de565b90506000602087019050612ed0826000838a51613580565b6000612edb85612be6565b1115612f5f576000612eed8a8a612a7c565b878155905060208601915060008060005b612f0788612be6565b8160ff161015612f5a57612f1c8d8d836125c0565b9250612f378a8260ff166028026038011c64ffffffffff1690565b9150612f468360008785613580565b612f508286613971565b9450600101612efe565b505050505b60005b83518110156121d3576000848281518110612f7f57612f7f613890565b60200260200101519050612fab6002826affffffffffffffffffffff191661353690919063ffffffff16565b1561302d576040517f5b28cdaf000000000000000000000000000000000000000000000000000000008152606082901c90635b28cdaf90612ffa908e908e908e908e908e908e90600401613dee565b600060405180830381600087803b15801561301457600080fd5b505af1158015613028573d6000803e3d6000fd5b505050505b5080613038816138bc565b915050612f62565b613a3160f11b877fffff00000000000000000000000000000000000000000000000000000000000016146130ca57613a3160f11b878860405160200161308891815260200190565b60408051601f19818403018152908290527f31b4668300000000000000000000000000000000000000000000000000000000825261022b939291600401613e47565b60006130e5828760ff166028026038011c64ffffffffff1690565b9050600083518564ffffffffff16836130fe9190613b53565b6131089190613971565b905080821415801561312a5750816131208688613e88565b64ffffffffff1614155b1561317a576040517fa65010b400000000000000000000000000000000000000000000000000000000815264ffffffffff808816600483015280871660248301528316604482015260640161022b565b818664ffffffffff1611156131cb576040517f7e8578d30000000000000000000000000000000000000000000000000000000081526004810183905264ffffffffff8716602482015260440161022b565b60006131d8848984613640565b905064ffffffffff871660005b8960ff168160ff1610156132185761320c868260ff166028026038011c64ffffffffff1690565b909101906001016131e5565b508a7faa63765a776145e5e6492f471ae097dfed11cd57a61bc2679dd43180422385b48b838a868b604051613251959493929190613ea6565b60405180910390a25060006132658b613456565b905060005b815181101561333a57600082828151811061328757613287613890565b602002602001015190506132b36010826affffffffffffffffffffff191661353690919063ffffffff16565b1561332757606081901c6001600160a01b03166355eb5a288e8e8e8e8e8a8f6040518863ffffffff1660e01b81526004016132f49796959493929190613eec565b600060405180830381600087803b15801561330e57600080fd5b505af1158015613322573d6000803e3d6000fd5b505050505b5080613332816138bc565b91505061326a565b5082841461335357600061334e8c8c612a7c565b839055505b60006133608c8c8c6125c0565b9050613374818a64ffffffffff1689613554565b5060005b815181101561344857600082828151811061339557613395613890565b602002602001015190506133c16020826affffffffffffffffffffff191661353690919063ffffffff16565b1561343557606081901c6001600160a01b031663635845338e8e8e8e8e8a8f6040518863ffffffff1660e01b81526004016134029796959493929190613eec565b600060405180830381600087803b15801561341c57600080fd5b505af1158015613430573d6000803e3d6000fd5b505050505b5080613440816138bc565b915050613378565b505050505050505050505050565b6040805160018082528183019092526060916000919060208083019080368337019050509050828160008151811061349057613490613890565b60209081029190910181019190915260408051613a3160f11b818401527f73746f726500000000000000000000000000000000000000000000000000000060228201527f53746f7265486f6f6b73000000000000000000000000000000000000000000006030820152815180820390930183528101905260009061351f90613517906138d6565b836000612216565b90506105d56135318260008451611e16565b61370e565b60008160ff16826135478560581c90565b1660ff1614905092915050565b611aad8383602084018451613580565b60408051602081018490529081018290526000906060016124f3565b82156135fa57602083106135aa576020830484019350602083816135a6576135a66139a1565b0692505b82156135fa5760208390036000600019600884021c1990506008850281811c91508451811c90508119875416828216178755508183116135eb5750506115c2565b50600194909401939182019190035b5b6020811061361c5781518455600190930192602090910190601f19016135fb565b80156115c2576000600019600883021c198554845182169119161785555050505050565b600064ffffffffff821115613684576040517f476705880000000000000000000000000000000000000000000000000000000081526004810183905260240161022b565b8366ffffffffffffff811660ff851660280260380182901c64ffffffffff168085106136b657808503820191506136be565b848103820391505b5064ffffffffff6038602860ff8816020181811b197fffffffffffffffffffffffffffffffffffffffffffffffffff000000000000009490941690921792909216918416901b1790509392505050565b606060006104ea8360156000612250565b60006020828403121561373157600080fd5b81357fffffffff00000000000000000000000000000000000000000000000000000000811681146104ea57600080fd5b634e487b7160e01b600052604160045260246000fd5b604051601f8201601f1916810167ffffffffffffffff811182821017156137a0576137a0613761565b604052919050565b600067ffffffffffffffff8211156137c2576137c2613761565b50601f01601f191660200190565b6000602082840312156137e257600080fd5b813567ffffffffffffffff8111156137f957600080fd5b8201601f8101841361380a57600080fd5b803561381d613818826137a8565b613777565b81815285602083850101111561383257600080fd5b81602084016020830137600091810160200191909152949350505050565b60005b8381101561386b578181015183820152602001613853565b50506000910152565b60008251613886818460208701613850565b9190910192915050565b634e487b7160e01b600052603260045260246000fd5b634e487b7160e01b600052601160045260246000fd5b600060001982036138cf576138cf6138a6565b5060010190565b805160208083015191908110156138f7576000198160200360031b1b821691505b50919050565b60ff8181168382160290811690818114613919576139196138a6565b5092915050565b60ff818116838216019081111561019f5761019f6138a6565b60ff828116828216039081111561019f5761019f6138a6565b600060ff821660ff8103613968576139686138a6565b60010192915050565b8082018082111561019f5761019f6138a6565b600060ff821680613997576139976138a6565b6000190192915050565b634e487b7160e01b600052601260045260246000fd5b600060ff8316806139ca576139ca6139a1565b8060ff84160491505092915050565b600081518084526020808501945080840160005b83811015613a09578151875295820195908201906001016139ed565b509495945050505050565b848152608060208201526000613a2d60808301866139d9565b60ff949094166040830152506060015292915050565b600060208284031215613a5557600080fd5b5051919050565b838152606060208201526000613a7560608301856139d9565b905060ff83166040830152949350505050565b600082601f830112613a9957600080fd5b8151613aa7613818826137a8565b818152846020838601011115613abc57600080fd5b6105d5826020830160208701613850565b600060208284031215613adf57600080fd5b815167ffffffffffffffff811115613af657600080fd5b6105d584828501613a88565b60008151808452613b1a816020860160208601613850565b601f01601f19169290920160200192915050565b606081526000613b416060830186613b02565b60208301949094525060400152919050565b8181038181111561019f5761019f6138a6565b600082613b7557613b756139a1565b500690565b85815260a060208201526000613b9360a08301876139d9565b60ff861660408401528281036060840152613bae8186613b02565b9150508260808301529695505050505050565b838152606060208201526000613bda60608301856139d9565b9050826040830152949350505050565b600080600060608486031215613bff57600080fd5b835167ffffffffffffffff80821115613c1757600080fd5b613c2387838801613a88565b9450602086015193506040860151915080821115613c4057600080fd5b50613c4d86828701613a88565b9150509250925092565b85815260a060208201526000613c7060a08301876139d9565b8281036040840152613c828187613b02565b90508460608401528281036080840152613c9c8185613b02565b98975050505050505050565b848152608060208201526000613cc160808301866139d9565b60ff851660408401528281036060840152613cdc8185613b02565b979650505050505050565b82815260006020808301845182860160005b82811015613d1557815184529284019290840190600101613cf9565b5091979650505050505050565b808202811582820484141761019f5761019f6138a6565b606081526000613d4c60608301866139d9565b65ffffffffffff851660208401528281036040840152613d6c8185613b02565b9695505050505050565b848152608060208201526000613d8f60808301866139d9565b65ffffffffffff851660408401528281036060840152613cdc8185613b02565b608081526000613dc260808301876139d9565b8281036020840152613dd48187613b02565b90508460408401528281036060840152613cdc8185613b02565b86815260c060208201526000613e0760c08301886139d9565b8281036040840152613e198188613b02565b90508560608401528281036080840152613e338186613b02565b9150508260a0830152979650505050505050565b7fffff0000000000000000000000000000000000000000000000000000000000008416815282602082015260606040820152600061220d6060830184613b02565b64ffffffffff818116838216019080821115613919576139196138a6565b60a081526000613eb960a08301886139d9565b65ffffffffffff8716602084015264ffffffffff861660408401528460608401528281036080840152613c9c8185613b02565b87815260e060208201526000613f0560e08301896139d9565b60ff8816604084015264ffffffffff87811660608501528616608084015260a0830185905282810360c0840152613f3c8185613b02565b9a995050505050505050505056fea26469706673582212208062483d0e6a1a4667185ef0a10372a2b976638df75a5e12fdc44edfec21043a64736f6c63430008150033",
    "linkReferences": {}
  },
  "methodIdentifiers": {
    "_msgSender()": "119df25f",
    "_msgValue()": "45ec9354",
    "_world()": "e1af802c",
    "getMatrix()": "5ad3a0a8",
    "initMatrix()": "5841370c",
    "move(string)": "0bfb0697",
    "supportsInterface(bytes4)": "01ffc9a7"
  },
  "id": 142
}